:020000040800F2
:1000000000000220C9050008990500089B050008AA
:100010009D0500089F050008A105000800000000DC
:10002000000000000000000000000000A305000820
:10003000A505000800000000A7050008A9050008A4
:10004000C5050008C5050008C5050008C505000868
:10005000C5050008C5050008C5050008C505000858
:10006000C5050008C5050008C5050008C505000848
:10007000C5050008C5050008C5050008C505000838
:10008000C5050008C5050008C5050008C505000828
:10009000C5050008C5050008C5050008C505000818
:1000A000C5050008C5050008C5050008C505000808
:1000B000C5050008C5050008C5050008C5050008F8
:1000C000C5050008C5050008C5050008C5050008E8
:1000D000C5050008C5050008C5050008C5050008D8
:1000E000C5050008C5050008C5050008C5050008C8
:1000F000C5050008C5050008C5050008C5050008B8
:10010000C5050008C5050008C5050008C5050008A7
:10011000C5050008C5050008C5050008C505000897
:10012000C5050008C5050008C5050008C505000887
:10013000C5050008C5050008C5050008C505000877
:10014000C5050008C5050008C5050008C505000867
:10015000C5050008C5050008C5050008C505000857
:10016000C5050008C5050008C5050008C505000847
:10017000C5050008C5050008C5050008C505000837
:08018000C5050008C5050008D3
:100188000348044B834202D0034B03B1184770471E
:100198000000002000000020000000000548064B79
:1001A8001B1AD90F01EBA301491002D0034B03B16D
:1001B80018477047000000200000002000000000E1
:1001C80010B5064C237843B9FFF7DAFF044B13B197
:1001D8000448AFF300800123237010BD0000002005
:1001E800000000001006000808B5054B1BB10549C2
:1001F8000548AFF30080BDE80840FFF7CFBF00BF58
:1002080000000000040000201006000808B50020C7
:1002180000F006F80121002000F00EF8FAE70000CF
:1002280010B504460321034800F032F8204600F0D8
:100238003FF810BD2806000808B500F069F808BDA9
:10024800012814BF00200120704700000E4B1968D8
:10025800B1B110B484460D4B1C789CB100239C426C
:100268000AD903EB830201EB820011F822206245D0
:1002780003D00133DBB2F2E700205DF8044B70478E
:10028800084670470020F8E7200000201C000020E6
:100298000023054A1360054A137020B119B1024AB8
:1002A8001060024B19707047200000201C000020CD
:1002B80070B5FFF7C5FF144B1B6823B30646134BF5
:1002C8001B7803B3002401E00134E4B20F4B1B7820
:1002D800A34218D90C4B1D6804EB840305EB830576
:1002E800EB68002BF0D02A69002AEDD06868002856
:1002F800EAD029890029E7D098472B69324629890D
:1003080068689847E0E770BD200000201C000020C6
:10031800F8B50C46FFF79AFF48B1056946680789A2
:100328002046FFF78DFF024639463046A847F8BDFC
:10033800284B984218D0284B98421BD0274B9842FC
:100348001ED0274B984221D0264B984224D0264BCA
:10035800984227D0254B98422AD0254B98422DD039
:10036800244B984230D07047234A136B43F0010363
:1003780013637047204A136B43F0020313637047FB
:100388001D4A136B43F00403136370471A4A136B37
:1003980043F0080313637047174A136B43F01003C5
:1003A80013637047144A136B43F0200313637047B9
:1003B800114A136B43F04003136370470E4A136BE3
:1003C80043F08003136370470B4A136B43F4807345
:1003D8001363C8E70000024000040240000802401E
:1003E800000C0240001002400014024000180240B5
:1003F800001C024000200240003802400246002053
:100408000F2806D8012383409BB2934203D00130C2
:10041800F6E74FF0FF30704738B338B5044629B1D6
:100428000846FFF7EBFF05460F2800D938BD2046E0
:10043800FFF77EFF6900226803238B4022EA03024C
:1004480022602068012202FA01F1014321606168FB
:10045800AA4021EA02026260A26822EA0302A260BC
:10046800E26822EA0303E360E0E7704728B121B1BC
:100478000AB18161704709048161704782B0002325
:10048800019300932A4A136843F480331360284B7E
:100498001B6803F400330093019B01330193009B15
:1004A8001BB9019BB3F5A04FF1D1214B1B6813F485
:1004B800003F06D001230093009B012B04D002B01B
:1004C800704700230093F7E7194B1A6C42F08052EB
:1004D8001A6418490A6842F440420A609A689A60A5
:1004E8009A6842F400429A609A6842F4A0529A606C
:1004F800114A5A601A6842F080721A600C4B1B68E5
:1005080013F0007FFAD00D4B40F205721A60A3F584
:1005180080639A6822F003029A609A6842F00202A5
:100528009A60034B9B6803F00C03082BF9D1C6E7CC
:10053800003802400070004008544007003C024068
:1005480010B5104CD4F8883043F47003C4F88830E0
:100558000D4B1A6842F001021A60002199601A686E
:1005680022F0847222F480321A60084A5A601A68AB
:1005780022F480221A60D960FFF780FF4FF00063F1
:10058800A36010BD00ED00E00038024010300024E8
:100598007047FEE7FEE7FEE7FEE7704770477047E3
:1005A80070474FF0E022D2F8883D43F47003C2F858
:1005B800883DBFF34F8FBFF36F8F7047FEE7000092
:1005C80008B50C4B0C4903E051F8042B43F8042BF5
:1005D8000A4A9342F8D30A4B02E0002243F8042B5C
:1005E800084A9342F9D3FFF7DCFFFFF7A9FFFFF7AB
:1005F8000DFEFEE7000000206C0600080000002049
:100608000000002024000020F8B500BFF8BC08BC9A
:100618009E467047F8B500BFF8BC08BC9E467047B8
:10062800000000000010024004000000210400083F
:1006380075040008010000000010024008000000D6
:1006480021040008750400080200000000100240A0
:0C065800100000002104000875040008D8
:04066400F101000898
:04066800C9010008BC
:04000005080005C921
:00000001FF
