:020000040800F2
:10000000005000200D050008F9040008FB0400085A
:10001000FD040008FF0400080105000800000000BE
:1000200000000000000000000000000003050008C0
:100030000505000800000000070500080905000884
:100040000B0500080B0500080B0500080B05000850
:100050000B0500080B0500080B0500080B05000840
:100060000B0500080B0500080B0500080B05000830
:100070000B0500080B0500080B0500080B05000820
:100080000B0500080B0500080B0500080B05000810
:100090000B0500080B0500080B0500080B05000800
:1000A0000B0500080B0500080B0500080B050008F0
:1000B0000B0500080B0500080B0500080B050008E0
:1000C0000B0500080B0500080B0500080B050008D0
:1000D0000B0500080B0500080B0500080B050008C0
:1000E0000B0500080B0500080B0500080B050008B0
:1000F0000B0500080B0500080B0500080B050008A0
:100100000B0500080B0500080B0500080B0500088F
:100110000B0500080B0500080B0500080B0500087F
:100120000B0500080B0500080B0500080B0500086F
:100130000348044B834202D0034B03B11847704776
:100140000000002000000020000000000548064BD1
:100150001B1AD90F01EBA301491002D0034B03B1C5
:100160001847704700000020000000200000000039
:1001700010B5064C237843B9FFF7DAFF044B13B1EF
:100180000448AFF300800123237010BD000000205D
:10019000000000005005000808B5054B1BB10549DB
:1001A0000548AFF30080BDE80840FFF7CFBF00BFB0
:1001B00000000000040000205005000808B50020E1
:1001C00000F006F80121002000F00EF8FAE7000028
:1001D00010B504460121034800F032F8204600F033
:1001E0003FF810BD6805000808B500F069F808BDC3
:1001F000012814BF00200120704700000E4B196831
:10020000A9B110B484460D4B1C7894B100239C42D4
:100210000AD903EB830201EB820011F82220624528
:1002200003D00133DBB2F2E7002010BC7047084670
:1002300070470020F9E700BF200000201C000020CC
:100240000023054A1360054A137020B119B1024A10
:100250001060024B19707047200000201C00002025
:1002600070B5FFF7C5FF144B1B6823B30646134B4D
:100270001B7803B3002401E00134E4B20F4B1B7878
:10028000A34218D90C4B1D6804EB840305EB8305CE
:10029000EB68002BF0D02A69002AEDD068680028AE
:1002A000EAD029890029E7D098472B693246298965
:1002B00068689847E0E770BD200000201C0000201F
:1002C000F8B50C46FFF79AFF48B1056946680789FB
:1002D0002046FFF78DFF024639463046A847F8BD55
:1002E000164B98420CD0164B98420FD0154B9842A3
:1002F00012D0154B984215D0144B984218D0704725
:10030000134A936943F0040393617047104A936959
:1003100043F00803936170470D4A936943F010035B
:10032000936170470A4A936943F0200393617047D1
:10033000074A936943F040039361E0E700080140F6
:10034000000C014000100140001401400018014061
:1003500000100240024600200F2806D801238340E7
:100360009BB2934203D00130F6E74FF0FF30704765
:1003700058B338B5054629B10846FFF7EBFF0446E8
:100380000F2800D938BD2846FFF7AAFF04F007035D
:100390009B00072C0CD82A680F21994022EA010201
:1003A0002A602A68022101FA03F313432B60E9E76C
:1003B0006A680F21994022EA01026A606A68022194
:1003C00001FA03F313436B60DCE7704720B119B106
:1003D0000AB10161704741617047000082B000239B
:1003E000019300932C4A136843F4803313602A4B23
:1003F0001B6803F400330093019B01330193009BBE
:100400001BB9019BB3F5A06FF1D1234B1B6813F40B
:10041000003F06D001230093009B012B04D002B0C3
:10042000704700230093F7E71C4B1A6842F0100254
:100430001A601A6822F007021A601A6842F0020273
:100440001A60A3F580535A685A605A685A605A680D
:1004500042F480625A605A6822F47C125A605A68E8
:1004600042F4E8125A601A6842F080721A600A4B2D
:100470001B6813F0007FFAD0074B5A6822F0030282
:100480005A605A6842F002025A60034B5B6803F0FC
:100490000C03082BF9D1C2E70010024000200240F3
:1004A00008B5FFF79BFF08BD08B5104B1A6842F06E
:1004B00001021A6059680E4A0A405A601A6822F00E
:1004C000847222F480321A601A6822F480221A6040
:1004D0005A6822F4FE025A604FF41F029A60FFF736
:1004E000DFFF044B4FF000629A6008BD001002402D
:1004F0000000FFF800ED00E07047FEE7FEE7FEE7D2
:10050000FEE77047704770477047FEE708B50B4B32
:100510000B4903E051F8042B43F8042B094A93429A
:10052000F8D3094B02E0002243F8042B074A934218
:10053000F9D3FFF7B9FFFFF741FEFEE70000002007
:100540008405000800000020000000202400002096
:10055000F8B500BFF8BC08BC9E467047F8B500BFB0
:08056000F8BC08BC9E46704780
:100568000000000000100140002000007103000896
:04057800CD030008A7
:04057C0099010008D9
:0405800071010008FD
:040000050800050DDD
:00000001FF
