:020000040800F2
:1000000068060020290200083702000839020008AB
:100010003B0200083D0200083F020008000000000B
:100020000000000000000000000000004102000885
:1000300043020008000000004502000847020008D3
:100040004902000849020008490200084902000864
:100050004902000849020008490200084902000854
:100060004902000849020008490200084902000844
:100070004902000849020008490200084902000834
:100080004902000849020008490200084902000824
:100090004902000849020008490200084902000814
:1000A0004902000849020008490200084902000804
:1000B00049020008490200084902000849020008F4
:1000C00049020008490200084902000849020008E4
:1000D00049020008490200084902000849020008D4
:1000E00049020008490200084902000849020008C4
:1000F00049020008490200084902000849020008B4
:1001000049020008490200084902000849020008A3
:100110004902000849020008490200084902000893
:100120004902000849020008490200084902000883
:100130004902000849020008490200084902000873
:100140004902000849020008490200084902000863
:100150004902000849020008490200084902000853
:100160004902000849020008490200084902000843
:100170004902000849020008490200084902000833
:10018000490200084902000800F002F800F03CF8BB
:100190000AA090E8000C82448344AAF10107DA45E2
:1001A00001D100F031F8AFF2090EBAE80F0013F0F8
:1001B000010F18BFFB1A43F0010318474404000065
:1001C00064040000103A24BF78C878C1FAD85207F6
:1001D00024BF30C830C144BF04680C6070470000C1
:1001E0000023002400250026103A28BF78C1FBD840
:1001F000520728BF30C148BF0B6070471FB500F0E1
:10020000DCF91FBD10B510BD00F035F81146FFF741
:10021000F5FF00F0C9F900F053F803B4FFF7F2FF5F
:1002200003BC00F05BF800000B48016841F470016A
:1002300001600A480047FEE7FEE7FEE7FEE7FEE74B
:10024000FEE7FEE7FEE7FEE7FEE70000044805499B
:10025000054A064B7047000088ED00E08901000860
:100260006800002068060020680200206802002064
:10027000704770477047754600F02CF8AE46050091
:100280006946534620F00700854618B020B5FFF7B1
:10029000DDFFBDE820404FF000064FF000074FF0B3
:1002A00000084FF0000B21F00701AC46ACE8C00994
:1002B000ACE8C009ACE8C009ACE8C0098D4670479D
:1002C00010B50446AFF300802046BDE81040FFF7AC
:1002D000A4BF000000487047080000200149182012
:1002E000ABBEFEE726000200704770B504460D461F
:1002F0002946204600F0CEF870BD000010B5044637
:100300000321034800F03EF9204600F0FFF810BD3D
:10031000C40500082E49884206D12E49096841F0DB
:1003200001012C4A116050E02B49884206D129492D
:10033000096841F00201274A116046E027498842D6
:1003400006D12449096841F00401224A11603CE0C9
:100350002349884206D11F49096841F008011D4A16
:10036000116032E01F49884206D11A49096841F0FC
:100370001001184A116028E01B49884206D115492E
:10038000096841F02001134A11601EE017498842B4
:1003900006D11049096841F040010E4A116014E08D
:1003A0001349884206D10B49096841F08001094A86
:1003B00011600AE00F49884206D10649096841F4F4
:1003C0008071044A116000E0704700BFFCE7000044
:1003D00000000240303802400004024000080240A1
:1003E000000C0240001002400014024000180240BD
:1003F000001C0240002002402DE9F04107468846DB
:1004000017B1B8F1000F01D1BDE8F0813C4640467C
:1004100000F023F805460F2D00D9F5E72046FFF739
:1004200079FF6E0020680321B14088432060206876
:100430000121B1400843206060680121A940884340
:100440006060A0680321B1408843A060E068032198
:10045000B1408843E06000BFD6E70246002107E0D4
:100460000120884080B2904201D108467047491C63
:100470001029F5D34FF0FF30F8E710B5134600B15F
:1004800001B910BD02460BB1916101E00C04946109
:1004900000BFF6E72DE9F04106460D46304600F074
:1004A0000FF804460CB9BDE8F081284600F064F866
:1004B000074621893A4623696068984700BFF2E7FA
:1004C00002461048006810B10F48007808B90020B3
:1004D0007047002110E001EB81000A4B1B6813F804
:1004E0002000904206D101EB8100064B1B6803EB14
:1004F0008000EDE7481CC1B2034800788142EADB86
:100500000020E5E700000020040000202DE9F04174
:100510000646304600F030F807461548006810B12E
:100520001448007808B9BDE8F08100251AE005EB11
:1005300085000F49096801EB8004E06828B1206953
:1005400018B1606808B1208900B909E02189E26822
:100550006068904721893A4623696068984700BFE0
:10056000681CC5B2034800788542E0DB00BFDAE7CB
:1005700000000020040000200146012900D170473E
:100580000020FCE70022064B1A60064B1A7000B1EF
:1005900001B97047024A1060024A117000BFF8E7C3
:1005A00000000020040000200020FFF7A7FE03E069
:1005B00001210020FFF799FEFAE74FF04070E1EECD
:1005C000100A704700000000001002400400000004
:1005D000F90300087B04000801000000001002403D
:1005E00008000000F90300087B0400080200000076
:1005F0000010024010000000F90300087B0400080E
:10060000200600080000002008000000C4010008C7
:10061000280600080800002060060000E00100082D
:080620000000000000000000D2
:040000050800018965
:00000001FF
