:020000040800F2
:10000000680600208901000891010008930100089A
:100010009501000897010008990100080000000000
:100020000000000000000000000000009B0100082C
:100030009D010008000000009F010008A1010008C8
:10004000A3010008A3010008A3010008A301000800
:10005000A3010008A3010008A3010008A3010008F0
:10006000A3010008A3010008A3010008A3010008E0
:10007000A3010008A3010008A3010008A3010008D0
:10008000A3010008A3010008A3010008A3010008C0
:10009000A3010008A3010008A3010008A3010008B0
:1000A000A3010008A3010008A3010008A3010008A0
:1000B000A3010008A3010008A3010008A301000890
:1000C000A3010008A3010008A3010008A301000880
:1000D000A3010008A3010008A3010008A301000870
:1000E000A3010008A3010008A301000800F002F822
:1000F00000F03AF80AA090E8000C82448344AAF188
:100100000107DA4501D100F02FF8AFF2090EBAE885
:100110000F0013F0010F18BFFB1A43F0010318473B
:10012000EC0400000C050000103A24BF78C878C128
:10013000FAD8520724BF30C830C144BF04680C60ED
:10014000704700000023002400250026103A28BF35
:1001500078C1FBD8520728BF30C148BF0B60704739
:100160001FB51FBD10B510BD00F031F81146FFF7E7
:10017000F7FF00F037FA00F04FF803B4FFF7F2FF93
:1001800003BC00F057F800000948804709480047C1
:10019000FEE7FEE7FEE7FEE7FEE7FEE7FEE7FEE737
:1001A000FEE7FEE704480549054A064B7047000094
:1001B00085050008ED0000086800002068060020A2
:1001C000680200206802002070477047704775463B
:1001D00000F02CF8AE4605006946534620F00700B3
:1001E000854618B020B5FFF7DDFFBDE820404FF091
:1001F00000064FF000074FF000084FF0000B21F011
:100200000701AC46ACE8C009ACE8C009ACE8C009DD
:10021000ACE8C0098D46704710B50446AFF30080C6
:100220002046BDE81040FFF7A8BF00000048704717
:100230000800002001491820ABBEFEE7260002009E
:10024000704770B504460D462946204600F09BF8DD
:1002500070BD000010B504460121034800F00CF900
:10026000204600F0CDF810BDF80500081A49884274
:1002700006D11A49896941F00401184A916128E0C0
:100280001749884206D11549896941F00801134A86
:1002900091611EE01349884206D11049896941F0F5
:1002A00010010E4A916114E00F49884206D10B49B2
:1002B000896941F02001094A91610AE00B498842AD
:1002C00006D10649896941F04001044A916100E084
:1002D000704700BFFCE7000000080140001002402A
:1002E000000C0140001001400014014000180140C2
:1002F0002DE9F0410746884617B1B8F1000F01D14A
:10030000BDE8F0813C46404600F022F805460F2D3E
:1003100000D9F5E72046FFF7A9FF6807C60E082DAC
:100320000AD220680F21B140884320602168022052
:10033000B0400143216009E061680F20B040814373
:10034000616060680221B1400843606000BFD7E788
:100350000246002107E00120884080B2904201D18E
:1003600008467047491C1029F5D34FF0FF30F8E7D5
:10037000134600B101B9704702460BB1116100E0AC
:10038000516100BFF7E72DE9F04106460D463046C2
:1003900000F010F804460CB9BDE8F081284600F0E2
:1003A00065F8074621893A4623696068984700BF87
:1003B000F2E7000002461048006810B10F480078CC
:1003C00008B900207047002110E001EB81000A4BC2
:1003D0001B6813F82000904206D101EB8100064B08
:1003E0001B6803EB8000EDE7481CC1B203480078AE
:1003F0008142EADB0020E5E7000000200400002045
:100400002DE9F0410646304600F030F80746154821
:10041000006810B11448007808B9BDE8F0810025E3
:100420001AE005EB85000F49096801EB8004E068DC
:1004300028B1206918B1606808B1208900B909E0C5
:100440002189E2686068904721893A46236960689B
:10045000984700BF681CC5B2034800788542E0DBBE
:1004600000BFDAE700000020040000200146012957
:1004700000D170470020FCE70022064B1A60064BB3
:100480001A7000B101B97047024A1060024A117037
:1004900000BFF8E7000000200400002010B500F0C5
:1004A00001F810BD0CB500200190009033480068A1
:1004B00040F480303149086000BF3048006800F4E3
:1004C000003000900198401C0190009818B90198E4
:1004D000B0F5A06FF1D12948006800F4003010B1E8
:1004E0000120009001E0002000900098012843D1F5
:1004F0002348006840F01000214908600846006861
:1005000020F0070008600846006840F0020008601C
:100510001A484068194948600846406848600846DB
:10052000406840F4806048600846406820F47C10D1
:1005300048600846406840F4E81048600846006893
:1005400040F08070086000BF0C48006800F0007048
:100550000028F9D00948406820F0030007494860A6
:100560000846406840F00200486000BF0348406809
:1005700000F00C000828F9D10CBD0000001002406A
:100580000020024010B51348006840F001001149F6
:10059000086008464068104908400E49486008460F
:1005A00000680E4908400B4908600846006820F4BE
:1005B000802008600846406820F4FE0048604FF440
:1005C0001F008860FFF76AFF4FF000600449086071
:1005D00010BD0000001002400000FFF8FFFFF6FE13
:1005E00008ED00E00020FFF735FE03E001210020C8
:1005F000FFF727FEFAE700000000000000100140AE
:1006000000200000F1020008710300082C06000819
:10061000000000200800000028010008340600083F
:1006200008000020600600004401000800000000EF
:0406300000000000C6
:04000005080000ED02
:00000001FF
